{
  "_format": "hh-sol-artifact-1",
  "contractName": "Bonds",
  "sourceName": "contracts/Bonds/Bonds.sol",
  "abi": [
    {
      "inputs": [],
      "stateMutability": "nonpayable",
      "type": "constructor"
    },
    {
      "anonymous": false,
      "inputs": [
        {
          "indexed": true,
          "internalType": "address",
          "name": "account",
          "type": "address"
        },
        {
          "indexed": true,
          "internalType": "address",
          "name": "operator",
          "type": "address"
        },
        {
          "indexed": false,
          "internalType": "bool",
          "name": "approved",
          "type": "bool"
        }
      ],
      "name": "ApprovalForAll",
      "type": "event"
    },
    {
      "anonymous": false,
      "inputs": [
        {
          "indexed": true,
          "internalType": "address",
          "name": "operator",
          "type": "address"
        },
        {
          "indexed": true,
          "internalType": "address",
          "name": "from",
          "type": "address"
        },
        {
          "indexed": true,
          "internalType": "address",
          "name": "to",
          "type": "address"
        },
        {
          "indexed": false,
          "internalType": "uint256[]",
          "name": "ids",
          "type": "uint256[]"
        },
        {
          "indexed": false,
          "internalType": "uint256[]",
          "name": "values",
          "type": "uint256[]"
        }
      ],
      "name": "TransferBatch",
      "type": "event"
    },
    {
      "anonymous": false,
      "inputs": [
        {
          "indexed": true,
          "internalType": "address",
          "name": "operator",
          "type": "address"
        },
        {
          "indexed": true,
          "internalType": "address",
          "name": "from",
          "type": "address"
        },
        {
          "indexed": true,
          "internalType": "address",
          "name": "to",
          "type": "address"
        },
        {
          "indexed": false,
          "internalType": "uint256",
          "name": "id",
          "type": "uint256"
        },
        {
          "indexed": false,
          "internalType": "uint256",
          "name": "value",
          "type": "uint256"
        }
      ],
      "name": "TransferSingle",
      "type": "event"
    },
    {
      "anonymous": false,
      "inputs": [
        {
          "indexed": false,
          "internalType": "string",
          "name": "value",
          "type": "string"
        },
        {
          "indexed": true,
          "internalType": "uint256",
          "name": "id",
          "type": "uint256"
        }
      ],
      "name": "URI",
      "type": "event"
    },
    {
      "inputs": [
        {
          "internalType": "uint256",
          "name": "",
          "type": "uint256"
        }
      ],
      "name": "IDToContract",
      "outputs": [
        {
          "internalType": "address",
          "name": "",
          "type": "address"
        }
      ],
      "stateMutability": "view",
      "type": "function"
    },
    {
      "inputs": [
        {
          "internalType": "address",
          "name": "account",
          "type": "address"
        },
        {
          "internalType": "uint256",
          "name": "id",
          "type": "uint256"
        }
      ],
      "name": "balanceOf",
      "outputs": [
        {
          "internalType": "uint256",
          "name": "",
          "type": "uint256"
        }
      ],
      "stateMutability": "view",
      "type": "function"
    },
    {
      "inputs": [
        {
          "internalType": "address[]",
          "name": "accounts",
          "type": "address[]"
        },
        {
          "internalType": "uint256[]",
          "name": "ids",
          "type": "uint256[]"
        }
      ],
      "name": "balanceOfBatch",
      "outputs": [
        {
          "internalType": "uint256[]",
          "name": "",
          "type": "uint256[]"
        }
      ],
      "stateMutability": "view",
      "type": "function"
    },
    {
      "inputs": [
        {
          "internalType": "address",
          "name": "_who",
          "type": "address"
        },
        {
          "internalType": "uint256",
          "name": "_index",
          "type": "uint256"
        }
      ],
      "name": "getAccruances",
      "outputs": [
        {
          "internalType": "uint256",
          "name": "",
          "type": "uint256"
        }
      ],
      "stateMutability": "view",
      "type": "function"
    },
    {
      "inputs": [
        {
          "internalType": "address",
          "name": "_staker",
          "type": "address"
        },
        {
          "internalType": "uint256",
          "name": "_index",
          "type": "uint256"
        },
        {
          "internalType": "uint256",
          "name": "_stakingAmount",
          "type": "uint256"
        },
        {
          "internalType": "uint256",
          "name": "_interest",
          "type": "uint256"
        }
      ],
      "name": "getInterest",
      "outputs": [
        {
          "internalType": "uint256",
          "name": "",
          "type": "uint256"
        }
      ],
      "stateMutability": "view",
      "type": "function"
    },
    {
      "inputs": [
        {
          "internalType": "address",
          "name": "_who",
          "type": "address"
        },
        {
          "internalType": "uint256",
          "name": "_index",
          "type": "uint256"
        }
      ],
      "name": "getStakingAt",
      "outputs": [
        {
          "internalType": "uint256",
          "name": "",
          "type": "uint256"
        },
        {
          "internalType": "uint256",
          "name": "",
          "type": "uint256"
        },
        {
          "internalType": "uint256",
          "name": "",
          "type": "uint256"
        },
        {
          "internalType": "uint256",
          "name": "",
          "type": "uint256"
        },
        {
          "internalType": "uint256",
          "name": "",
          "type": "uint256"
        }
      ],
      "stateMutability": "view",
      "type": "function"
    },
    {
      "inputs": [],
      "name": "head",
      "outputs": [
        {
          "internalType": "uint256",
          "name": "",
          "type": "uint256"
        }
      ],
      "stateMutability": "view",
      "type": "function"
    },
    {
      "inputs": [
        {
          "internalType": "address",
          "name": "account",
          "type": "address"
        },
        {
          "internalType": "address",
          "name": "operator",
          "type": "address"
        }
      ],
      "name": "isApprovedForAll",
      "outputs": [
        {
          "internalType": "bool",
          "name": "",
          "type": "bool"
        }
      ],
      "stateMutability": "view",
      "type": "function"
    },
    {
      "inputs": [
        {
          "internalType": "address",
          "name": "",
          "type": "address"
        }
      ],
      "name": "llTail",
      "outputs": [
        {
          "internalType": "uint256",
          "name": "",
          "type": "uint256"
        }
      ],
      "stateMutability": "view",
      "type": "function"
    },
    {
      "inputs": [
        {
          "internalType": "address",
          "name": "_paymentContractAddress",
          "type": "address"
        },
        {
          "internalType": "uint256",
          "name": "_id",
          "type": "uint256"
        },
        {
          "internalType": "bytes32",
          "name": "_hash",
          "type": "bytes32"
        },
        {
          "internalType": "bytes",
          "name": "_signature",
          "type": "bytes"
        }
      ],
      "name": "newLoan",
      "outputs": [],
      "stateMutability": "nonpayable",
      "type": "function"
    },
    {
      "inputs": [
        {
          "internalType": "address",
          "name": "_operator",
          "type": "address"
        },
        {
          "internalType": "address",
          "name": "_from",
          "type": "address"
        },
        {
          "internalType": "uint256[]",
          "name": "_ids",
          "type": "uint256[]"
        },
        {
          "internalType": "uint256[]",
          "name": "_values",
          "type": "uint256[]"
        },
        {
          "internalType": "bytes",
          "name": "_data",
          "type": "bytes"
        }
      ],
      "name": "onERC1155BatchReceived",
      "outputs": [
        {
          "internalType": "bytes4",
          "name": "",
          "type": "bytes4"
        }
      ],
      "stateMutability": "nonpayable",
      "type": "function"
    },
    {
      "inputs": [
        {
          "internalType": "address",
          "name": "_operator",
          "type": "address"
        },
        {
          "internalType": "address",
          "name": "_from",
          "type": "address"
        },
        {
          "internalType": "uint256",
          "name": "_id",
          "type": "uint256"
        },
        {
          "internalType": "uint256",
          "name": "_value",
          "type": "uint256"
        },
        {
          "internalType": "bytes",
          "name": "_data",
          "type": "bytes"
        }
      ],
      "name": "onERC1155Received",
      "outputs": [
        {
          "internalType": "bytes4",
          "name": "",
          "type": "bytes4"
        }
      ],
      "stateMutability": "pure",
      "type": "function"
    },
    {
      "inputs": [
        {
          "internalType": "address",
          "name": "from",
          "type": "address"
        },
        {
          "internalType": "address",
          "name": "to",
          "type": "address"
        },
        {
          "internalType": "uint256[]",
          "name": "ids",
          "type": "uint256[]"
        },
        {
          "internalType": "uint256[]",
          "name": "amounts",
          "type": "uint256[]"
        },
        {
          "internalType": "bytes",
          "name": "data",
          "type": "bytes"
        }
      ],
      "name": "safeBatchTransferFrom",
      "outputs": [],
      "stateMutability": "nonpayable",
      "type": "function"
    },
    {
      "inputs": [
        {
          "internalType": "address",
          "name": "from",
          "type": "address"
        },
        {
          "internalType": "address",
          "name": "to",
          "type": "address"
        },
        {
          "internalType": "uint256",
          "name": "id",
          "type": "uint256"
        },
        {
          "internalType": "uint256",
          "name": "amount",
          "type": "uint256"
        },
        {
          "internalType": "bytes",
          "name": "data",
          "type": "bytes"
        }
      ],
      "name": "safeTransferFrom",
      "outputs": [],
      "stateMutability": "nonpayable",
      "type": "function"
    },
    {
      "inputs": [
        {
          "internalType": "address",
          "name": "operator",
          "type": "address"
        },
        {
          "internalType": "bool",
          "name": "approved",
          "type": "bool"
        }
      ],
      "name": "setApprovalForAll",
      "outputs": [],
      "stateMutability": "nonpayable",
      "type": "function"
    },
    {
      "inputs": [
        {
          "internalType": "uint256",
          "name": "_id",
          "type": "uint256"
        },
        {
          "internalType": "uint256",
          "name": "_amm",
          "type": "uint256"
        }
      ],
      "name": "stake",
      "outputs": [
        {
          "internalType": "uint256",
          "name": "",
          "type": "uint256"
        }
      ],
      "stateMutability": "nonpayable",
      "type": "function"
    },
    {
      "inputs": [
        {
          "internalType": "bytes4",
          "name": "interfaceId",
          "type": "bytes4"
        }
      ],
      "name": "supportsInterface",
      "outputs": [
        {
          "internalType": "bool",
          "name": "",
          "type": "bool"
        }
      ],
      "stateMutability": "view",
      "type": "function"
    },
    {
      "inputs": [
        {
          "internalType": "uint256",
          "name": "_index",
          "type": "uint256"
        }
      ],
      "name": "unstake",
      "outputs": [
        {
          "internalType": "bool",
          "name": "",
          "type": "bool"
        }
      ],
      "stateMutability": "nonpayable",
      "type": "function"
    },
    {
      "inputs": [
        {
          "internalType": "uint256",
          "name": "",
          "type": "uint256"
        }
      ],
      "name": "uri",
      "outputs": [
        {
          "internalType": "string",
          "name": "",
          "type": "string"
        }
      ],
      "stateMutability": "view",
      "type": "function"
    }
  ],
  "bytecode": "0x60806040523480156200001157600080fd5b5060408051808201909152601e81527f68747470733a2f2f746573742e636f6d2f6170692f7b69647d2e6a736f6e00006020820152620000518162000058565b5062000154565b80516200006d90600290602084019062000071565b5050565b8280546200007f9062000117565b90600052602060002090601f016020900481019282620000a35760008555620000ee565b82601f10620000be57805160ff1916838001178555620000ee565b82800160010185558215620000ee579182015b82811115620000ee578251825591602001919060010190620000d1565b50620000fc92915062000100565b5090565b5b80821115620000fc576000815560010162000101565b600181811c908216806200012c57607f821691505b602082108114156200014e57634e487b7160e01b600052602260045260246000fd5b50919050565b6128ac80620001646000396000f3fe608060405234801561001057600080fd5b50600436106101505760003560e01c80638f7dcfa3116100cd578063c9e8307111610081578063e985e9c511610066578063e985e9c5146103b8578063f23a6e61146103f4578063f242432a1461041357600080fd5b8063c9e83071146102f3578063cd544dac1461030657600080fd5b8063a22cb465116100b2578063a22cb46514610267578063a59061bc1461027a578063bc197c81146102bb57600080fd5b80638f7dcfa31461024c57806397ed51d31461025457600080fd5b80632eb2c2d6116101245780634e1273f4116101095780634e1273f4146102065780637b0472f014610226578063869d1d091461023957600080fd5b80632eb2c2d6146101d1578063485eddc9146101e657600080fd5b8062fdd58e1461015557806301ffc9a71461017b5780630e89341c1461019e5780632e17de78146101be575b600080fd5b61016861016336600461222c565b610426565b6040519081526020015b60405180910390f35b61018e6101893660046123e6565b6104cf565b6040519015158152602001610172565b6101b16101ac366004612420565b61056c565b60405161017291906125f7565b61018e6101cc366004612420565b610600565b6101e46101df3660046120e7565b61082e565b005b6101686101f436600461208a565b60046020526000908152604090205481565b6102196102143660046122f6565b6108d0565b60405161017291906125b6565b61016861023436600461245e565b610a0e565b6101e4610247366004612258565b610a67565b610168600081565b61016861026236600461222c565b610d1e565b6101e46102753660046121fe565b610ead565b6102a3610288366004612420565b6003602052600090815260409020546001600160a01b031681565b6040516001600160a01b039091168152602001610172565b6102da6102c93660046120e7565b63bc197c8160e01b95945050505050565b6040516001600160e01b03199091168152602001610172565b6101686103013660046122bb565b610fb6565b61039061031436600461222c565b6001600160a01b03919091166000908152600560209081526040808320938352928152908290208251606080820185528254825260018301548285019081528551918201865260028401548252600384015494820194855260049093015481860190815294820181905290519151905192519351919490939190565b604080519586526020860194909452928401919091526060830152608082015260a001610172565b61018e6103c63660046120ae565b6001600160a01b03918216600090815260016020908152604080832093909416825291909152205460ff1690565b6102da610402366004612195565b63f23a6e6160e01b95945050505050565b6101e4610421366004612195565b610ff0565b60006001600160a01b0383166104a95760405162461bcd60e51b815260206004820152602b60248201527f455243313135353a2062616c616e636520717565727920666f7220746865207a60448201527f65726f206164647265737300000000000000000000000000000000000000000060648201526084015b60405180910390fd5b506000908152602081815260408083206001600160a01b03949094168352929052205490565b60006001600160e01b031982167fd9b67a2600000000000000000000000000000000000000000000000000000000148061053257506001600160e01b031982167f0e89341c00000000000000000000000000000000000000000000000000000000145b8061056657507f01ffc9a7000000000000000000000000000000000000000000000000000000006001600160e01b03198316145b92915050565b60606002805461057b9061269e565b80601f01602080910402602001604051908101604052809291908181526020018280546105a79061269e565b80156105f45780601f106105c9576101008083540402835291602001916105f4565b820191906000526020600020905b8154815290600101906020018083116105d757829003601f168201915b50505050509050919050565b33600090815260056020908152604080832083805290915281206001015461066a5760405162461bcd60e51b815260206004820152601c60248201527f596f7520617265206e6f74207374616b696e6720616e79204e4654730000000060448201526064016104a0565b33600090815260056020908152604080832085845282528083206002810154600391820154818652919093528184205491517f0714012c00000000000000000000000000000000000000000000000000000000815260048101849052929390926001600160a01b03909216918291908290630714012c90602401604080518083038186803b1580156106fb57600080fd5b505afa15801561070f573d6000803e3d6000fd5b505050506040513d601f19601f820116820180604052508101906107339190612480565b509050600061074433898785610fb6565b9050610750883361108b565b6040517fe62e1e4200000000000000000000000000000000000000000000000000000000815260048101829052602481018790526000906001600160a01b0385169063e62e1e4290604401602060405180830381600087803b1580156107b557600080fd5b505af11580156107c9573d6000803e3d6000fd5b505050506040513d601f19601f820116820180604052508101906107ed91906123c9565b156107fa575060016107fe565b5060005b610822338861080d898661262e565b604051806020016040528060008152506111b1565b98975050505050505050565b6001600160a01b03851633148061084a575061084a85336103c6565b6108bc5760405162461bcd60e51b815260206004820152603260248201527f455243313135353a207472616e736665722063616c6c6572206973206e6f742060448201527f6f776e6572206e6f7220617070726f766564000000000000000000000000000060648201526084016104a0565b6108c985858585856112d7565b5050505050565b606081518351146109495760405162461bcd60e51b815260206004820152602960248201527f455243313135353a206163636f756e747320616e6420696473206c656e67746860448201527f206d69736d61746368000000000000000000000000000000000000000000000060648201526084016104a0565b6000835167ffffffffffffffff81111561096557610965612763565b60405190808252806020026020018201604052801561098e578160200160208202803683370190505b50905060005b8451811015610a06576109d98582815181106109b2576109b261274d565b60200260200101518583815181106109cc576109cc61274d565b6020026020010151610426565b8282815181106109eb576109eb61274d565b60209081029190910101526109ff81612706565b9050610994565b509392505050565b6000610a2c3330858560405180602001604052806000815250610ff0565b610a5060405180606001604052808581526020018481526020014281525033611575565b503360009081526004602052604090205492915050565b604080516001600160a01b038616602082015290810184905282906060016040516020818303038152906040528051906020012014610b345760405162461bcd60e51b815260206004820152605360248201527f48617368206f662064617461207369676e6564206d757374206265207468652060448201527f7061796d656e74436f6e74726163744164647265737320616e6420696420656e60648201527f636f64656420696e2074686174206f7264657200000000000000000000000000608482015260a4016104a0565b6000610b9782610b91856040517f19457468657265756d205369676e6564204d6573736167653a0a3332000000006020820152603c8101829052600090605c01604051602081830303815290604052805190602001209050919050565b906116ec565b6040517fd41db84b00000000000000000000000000000000000000000000000000000000815260048101869052909150859060009081906001600160a01b0384169063d41db84b906024016040805180830381600087803b158015610bfb57600080fd5b505af1158015610c0f573d6000803e3d6000fd5b505050506040513d601f19601f82011682018060405250810190610c339190612439565b90925090506001600160a01b0384811690821614610cb95760405162461bcd60e51b815260206004820152602c60248201527f446174612070726f7669646564206d757374206265207369676e65642062792060448201527f74686520626f72726f776572000000000000000000000000000000000000000060648201526084016104a0565b600087815260036020908152604080832080547fffffffffffffffffffffffff0000000000000000000000000000000000000000166001600160a01b038d1617905580519182019052908152610d14903390899085906111b1565b5050505050505050565b6001600160a01b03821660009081526005602090815260408083208484528252808320815160608101835260028201548082526003830154948201949094526004909101549181019190915290610ddd5760405162461bcd60e51b815260206004820152602c60248201527f596f7520617265206e6f74207374616b696e6720616e7920746f6b656e73206160448201527f74207468697320696e646578000000000000000000000000000000000000000060648201526084016104a0565b805160009081526003602052604080822054835191517f0714012c00000000000000000000000000000000000000000000000000000000815260048101929092526001600160a01b03169182918290630714012c90602401604080518083038186803b158015610e4c57600080fd5b505afa158015610e60573d6000803e3d6000fd5b505050506040513d601f19601f82011682018060405250810190610e849190612480565b91505080846040015142610e989190612687565b610ea29190612646565b979650505050505050565b336001600160a01b0383161415610f2c5760405162461bcd60e51b815260206004820152602960248201527f455243313135353a2073657474696e6720617070726f76616c2073746174757360448201527f20666f722073656c66000000000000000000000000000000000000000000000060648201526084016104a0565b3360008181526001602090815260408083206001600160a01b0387168085529083529281902080547fffffffffffffffffffffffffffffffffffffffffffffffffffffffffffffff001686151590811790915590519081529192917f17307eab39ab6107e8899845ad3d59bd9653f200f220920489ca2b5937696c31910160405180910390a35050565b600080610fc38686610d1e565b9050612710610fd28486612668565b610fdc9190612646565b610fe69082612668565b9695505050505050565b6001600160a01b03851633148061100c575061100c85336103c6565b61107e5760405162461bcd60e51b815260206004820152602960248201527f455243313135353a2063616c6c6572206973206e6f74206f776e6572206e6f7260448201527f20617070726f766564000000000000000000000000000000000000000000000060648201526084016104a0565b6108c98585858585611708565b6001600160a01b038116600090815260046020526040902054826110f15760405162461bcd60e51b815260206004820152601660248201527f63616e6e6f742064656c6574652074686520686561640000000000000000000060448201526064016104a0565b80831415611129576001600160a01b038216600081815260056020908152604080832085845282528083205493835260049091529020555b506001600160a01b031660009081526005602081815260408084208585528252808420805460018083015491875283872081018290559154908652828620558151606081018352858152808401868152818401878152338852958552838720978752969093529084209151600283015593516003820155905160048201559182018190559055565b6001600160a01b03841661122d5760405162461bcd60e51b815260206004820152602160248201527f455243313135353a206d696e7420746f20746865207a65726f2061646472657360448201527f730000000000000000000000000000000000000000000000000000000000000060648201526084016104a0565b336112478160008761123e886118d1565b6108c9886118d1565b6000848152602081815260408083206001600160a01b03891684529091528120805485929061127790849061262e565b909155505060408051858152602081018590526001600160a01b0380881692600092918516917fc3d58168c5ae7397731d063d5bbf3d657854427343f4c083240f7aacaa2d0f62910160405180910390a46108c98160008787878761191c565b815183511461134e5760405162461bcd60e51b815260206004820152602860248201527f455243313135353a2069647320616e6420616d6f756e7473206c656e6774682060448201527f6d69736d6174636800000000000000000000000000000000000000000000000060648201526084016104a0565b6001600160a01b0384166113ca5760405162461bcd60e51b815260206004820152602560248201527f455243313135353a207472616e7366657220746f20746865207a65726f20616460448201527f647265737300000000000000000000000000000000000000000000000000000060648201526084016104a0565b3360005b84518110156115075760008582815181106113eb576113eb61274d565b6020026020010151905060008583815181106114095761140961274d565b602090810291909101810151600084815280835260408082206001600160a01b038e1683529093529190912054909150818110156114af5760405162461bcd60e51b815260206004820152602a60248201527f455243313135353a20696e73756666696369656e742062616c616e636520666f60448201527f72207472616e736665720000000000000000000000000000000000000000000060648201526084016104a0565b6000838152602081815260408083206001600160a01b038e8116855292528083208585039055908b168252812080548492906114ec90849061262e565b925050819055505050508061150090612706565b90506113ce565b50846001600160a01b0316866001600160a01b0316826001600160a01b03167f4a39dc06d4c0dbc64b70af90fd698a233a518aa5d07e595d983b8c0526c8f7fb87876040516115579291906125c9565b60405180910390a461156d818787878787611ae6565b505050505050565b6001600160a01b038116600090815260046020908152604080832054600583528184208480529092529091206001015461162457506001600160a01b0316600081815260056020908152604080832083805280835281842060019081018190558251606081018452858152808501868152818501988952828752928552838620905181559151828201559551805160028301558084015160038301558201516004918201559383529290522055565b61162f81600161262e565b6001600160a01b038316600081815260056020818152604080842087855280835281852060019081019790975581516060810183528881528084018690529182018a90529484529190529261168590859061262e565b8152602080820192909252604090810160009081208451815584840151600182015593820151805160028601558084015160038601558201516004948501556001600160a01b03861681529290915281208054916116e283612706565b9190505550505050565b60008060006116fb8585611c06565b91509150610a0681611c76565b6001600160a01b0384166117845760405162461bcd60e51b815260206004820152602560248201527f455243313135353a207472616e7366657220746f20746865207a65726f20616460448201527f647265737300000000000000000000000000000000000000000000000000000060648201526084016104a0565b3361179481878761123e886118d1565b6000848152602081815260408083206001600160a01b038a1684529091529020548381101561182b5760405162461bcd60e51b815260206004820152602a60248201527f455243313135353a20696e73756666696369656e742062616c616e636520666f60448201527f72207472616e736665720000000000000000000000000000000000000000000060648201526084016104a0565b6000858152602081815260408083206001600160a01b038b811685529252808320878503905590881682528120805486929061186890849061262e565b909155505060408051868152602081018690526001600160a01b03808916928a821692918616917fc3d58168c5ae7397731d063d5bbf3d657854427343f4c083240f7aacaa2d0f62910160405180910390a46118c882888888888861191c565b50505050505050565b6040805160018082528183019092526060916000919060208083019080368337019050509050828160008151811061190b5761190b61274d565b602090810291909101015292915050565b6001600160a01b0384163b1561156d5760405163f23a6e6160e01b81526001600160a01b0385169063f23a6e6190611960908990899088908890889060040161257e565b602060405180830381600087803b15801561197a57600080fd5b505af19250505080156119aa575060408051601f3d908101601f191682019092526119a791810190612403565b60015b611a60576119b6612779565b806308c379a014156119f057506119cb612795565b806119d657506119f2565b8060405162461bcd60e51b81526004016104a091906125f7565b505b60405162461bcd60e51b815260206004820152603460248201527f455243313135353a207472616e7366657220746f206e6f6e204552433131353560448201527f526563656976657220696d706c656d656e74657200000000000000000000000060648201526084016104a0565b6001600160e01b0319811663f23a6e6160e01b146118c85760405162461bcd60e51b815260206004820152602860248201527f455243313135353a204552433131353552656365697665722072656a6563746560448201527f6420746f6b656e7300000000000000000000000000000000000000000000000060648201526084016104a0565b6001600160a01b0384163b1561156d5760405163bc197c8160e01b81526001600160a01b0385169063bc197c8190611b2a908990899088908890889060040161252c565b602060405180830381600087803b158015611b4457600080fd5b505af1925050508015611b74575060408051601f3d908101601f19168201909252611b7191810190612403565b60015b611b80576119b6612779565b6001600160e01b0319811663bc197c8160e01b146118c85760405162461bcd60e51b815260206004820152602860248201527f455243313135353a204552433131353552656365697665722072656a6563746560448201527f6420746f6b656e7300000000000000000000000000000000000000000000000060648201526084016104a0565b600080825160411415611c3d5760208301516040840151606085015160001a611c3187828585611e6a565b94509450505050611c6f565b825160401415611c675760208301516040840151611c5c868383611f57565b935093505050611c6f565b506000905060025b9250929050565b6000816004811115611c8a57611c8a612737565b1415611c935750565b6001816004811115611ca757611ca7612737565b1415611cf55760405162461bcd60e51b815260206004820152601860248201527f45434453413a20696e76616c6964207369676e6174757265000000000000000060448201526064016104a0565b6002816004811115611d0957611d09612737565b1415611d575760405162461bcd60e51b815260206004820152601f60248201527f45434453413a20696e76616c6964207369676e6174757265206c656e6774680060448201526064016104a0565b6003816004811115611d6b57611d6b612737565b1415611ddf5760405162461bcd60e51b815260206004820152602260248201527f45434453413a20696e76616c6964207369676e6174757265202773272076616c60448201527f756500000000000000000000000000000000000000000000000000000000000060648201526084016104a0565b6004816004811115611df357611df3612737565b1415611e675760405162461bcd60e51b815260206004820152602260248201527f45434453413a20696e76616c6964207369676e6174757265202776272076616c60448201527f756500000000000000000000000000000000000000000000000000000000000060648201526084016104a0565b50565b6000807f7fffffffffffffffffffffffffffffff5d576e7357a4501ddfe92f46681b20a0831115611ea15750600090506003611f4e565b8460ff16601b14158015611eb957508460ff16601c14155b15611eca5750600090506004611f4e565b6040805160008082526020820180845289905260ff881692820192909252606081018690526080810185905260019060a0016020604051602081039080840390855afa158015611f1e573d6000803e3d6000fd5b5050604051601f1901519150506001600160a01b038116611f4757600060019250925050611f4e565b9150600090505b94509492505050565b6000807f7fffffffffffffffffffffffffffffffffffffffffffffffffffffffffffffff831660ff84901c601b01611f9187828885611e6a565b935093505050935093915050565b600082601f830112611fb057600080fd5b81356020611fbd8261260a565b604051611fca82826126d9565b8381528281019150858301600585901b87018401881015611fea57600080fd5b60005b8581101561200957813584529284019290840190600101611fed565b5090979650505050505050565b600082601f83011261202757600080fd5b813567ffffffffffffffff81111561204157612041612763565b6040516120586020601f19601f85011601826126d9565b81815284602083860101111561206d57600080fd5b816020850160208301376000918101602001919091529392505050565b60006020828403121561209c57600080fd5b81356120a78161283d565b9392505050565b600080604083850312156120c157600080fd5b82356120cc8161283d565b915060208301356120dc8161283d565b809150509250929050565b600080600080600060a086880312156120ff57600080fd5b853561210a8161283d565b9450602086013561211a8161283d565b9350604086013567ffffffffffffffff8082111561213757600080fd5b61214389838a01611f9f565b9450606088013591508082111561215957600080fd5b61216589838a01611f9f565b9350608088013591508082111561217b57600080fd5b5061218888828901612016565b9150509295509295909350565b600080600080600060a086880312156121ad57600080fd5b85356121b88161283d565b945060208601356121c88161283d565b93506040860135925060608601359150608086013567ffffffffffffffff8111156121f257600080fd5b61218888828901612016565b6000806040838503121561221157600080fd5b823561221c8161283d565b915060208301356120dc81612852565b6000806040838503121561223f57600080fd5b823561224a8161283d565b946020939093013593505050565b6000806000806080858703121561226e57600080fd5b84356122798161283d565b93506020850135925060408501359150606085013567ffffffffffffffff8111156122a357600080fd5b6122af87828801612016565b91505092959194509250565b600080600080608085870312156122d157600080fd5b84356122dc8161283d565b966020860135965060408601359560600135945092505050565b6000806040838503121561230957600080fd5b823567ffffffffffffffff8082111561232157600080fd5b818501915085601f83011261233557600080fd5b813560206123428261260a565b60405161234f82826126d9565b8381528281019150858301600585901b870184018b101561236f57600080fd5b600096505b8487101561239b5780356123878161283d565b835260019690960195918301918301612374565b50965050860135925050808211156123b257600080fd5b506123bf85828601611f9f565b9150509250929050565b6000602082840312156123db57600080fd5b81516120a781612852565b6000602082840312156123f857600080fd5b81356120a781612860565b60006020828403121561241557600080fd5b81516120a781612860565b60006020828403121561243257600080fd5b5035919050565b6000806040838503121561244c57600080fd5b8251915060208301516120dc8161283d565b6000806040838503121561247157600080fd5b50508035926020909101359150565b6000806040838503121561249357600080fd5b505080516020909101519092909150565b600081518084526020808501945080840160005b838110156124d4578151875295820195908201906001016124b8565b509495945050505050565b6000815180845260005b81811015612505576020818501810151868301820152016124e9565b81811115612517576000602083870101525b50601f01601f19169290920160200192915050565b60006001600160a01b03808816835280871660208401525060a0604083015261255860a08301866124a4565b828103606084015261256a81866124a4565b9050828103608084015261082281856124df565b60006001600160a01b03808816835280871660208401525084604083015283606083015260a06080830152610ea260a08301846124df565b6020815260006120a760208301846124a4565b6040815260006125dc60408301856124a4565b82810360208401526125ee81856124a4565b95945050505050565b6020815260006120a760208301846124df565b600067ffffffffffffffff82111561262457612624612763565b5060051b60200190565b6000821982111561264157612641612721565b500190565b60008261266357634e487b7160e01b600052601260045260246000fd5b500490565b600081600019048311821515161561268257612682612721565b500290565b60008282101561269957612699612721565b500390565b600181811c908216806126b257607f821691505b602082108114156126d357634e487b7160e01b600052602260045260246000fd5b50919050565b601f19601f830116810181811067ffffffffffffffff821117156126ff576126ff612763565b6040525050565b600060001982141561271a5761271a612721565b5060010190565b634e487b7160e01b600052601160045260246000fd5b634e487b7160e01b600052602160045260246000fd5b634e487b7160e01b600052603260045260246000fd5b634e487b7160e01b600052604160045260246000fd5b600060033d11156127925760046000803e5060005160e01c5b90565b600060443d10156127a35790565b6040517ffffffffffffffffffffffffffffffffffffffffffffffffffffffffffffffffc803d016004833e81513d67ffffffffffffffff81602484011181841117156127f157505050505090565b82850191508151818111156128095750505050505090565b843d87010160208285010111156128235750505050505090565b612832602082860101876126d9565b509095945050505050565b6001600160a01b0381168114611e6757600080fd5b8015158114611e6757600080fd5b6001600160e01b031981168114611e6757600080fdfea2646970667358221220a24313b95d8bf5380cc4638adc5b755a850c6123a0764a652fb7def55eceb3ac64736f6c63430008070033",
  "linkReferences": {},
  "deployedLinkReferences": {}
}