{
  "_format": "hh-sol-artifact-1",
  "contractName": "LoanWolfPool",
  "sourceName": "contracts/LoanWolfPool.sol",
  "abi": [
    {
      "inputs": [
        {
          "internalType": "address",
          "name": "_token",
          "type": "address"
        },
        {
          "internalType": "bool",
          "name": "_fullRepayment",
          "type": "bool"
        },
        {
          "internalType": "bytes1",
          "name": "_prefix",
          "type": "bytes1"
        },
        {
          "internalType": "address[]",
          "name": "_lenderWhitelist",
          "type": "address[]"
        }
      ],
      "stateMutability": "nonpayable",
      "type": "constructor"
    },
    {
      "anonymous": false,
      "inputs": [
        {
          "indexed": true,
          "internalType": "address",
          "name": "owner",
          "type": "address"
        },
        {
          "indexed": true,
          "internalType": "address",
          "name": "spender",
          "type": "address"
        },
        {
          "indexed": false,
          "internalType": "uint256",
          "name": "value",
          "type": "uint256"
        }
      ],
      "name": "Approval",
      "type": "event"
    },
    {
      "anonymous": false,
      "inputs": [
        {
          "indexed": true,
          "internalType": "address",
          "name": "previousOwner",
          "type": "address"
        },
        {
          "indexed": true,
          "internalType": "address",
          "name": "newOwner",
          "type": "address"
        }
      ],
      "name": "OwnershipTransferred",
      "type": "event"
    },
    {
      "anonymous": false,
      "inputs": [
        {
          "indexed": true,
          "internalType": "address",
          "name": "from",
          "type": "address"
        },
        {
          "indexed": true,
          "internalType": "address",
          "name": "to",
          "type": "address"
        },
        {
          "indexed": false,
          "internalType": "uint256",
          "name": "value",
          "type": "uint256"
        }
      ],
      "name": "Transfer",
      "type": "event"
    },
    {
      "inputs": [
        {
          "internalType": "address",
          "name": "owner",
          "type": "address"
        },
        {
          "internalType": "address",
          "name": "spender",
          "type": "address"
        }
      ],
      "name": "allowance",
      "outputs": [
        {
          "internalType": "uint256",
          "name": "",
          "type": "uint256"
        }
      ],
      "stateMutability": "view",
      "type": "function"
    },
    {
      "inputs": [
        {
          "internalType": "address",
          "name": "spender",
          "type": "address"
        },
        {
          "internalType": "uint256",
          "name": "amount",
          "type": "uint256"
        }
      ],
      "name": "approve",
      "outputs": [
        {
          "internalType": "bool",
          "name": "",
          "type": "bool"
        }
      ],
      "stateMutability": "nonpayable",
      "type": "function"
    },
    {
      "inputs": [
        {
          "internalType": "address",
          "name": "account",
          "type": "address"
        }
      ],
      "name": "balanceOf",
      "outputs": [
        {
          "internalType": "uint256",
          "name": "",
          "type": "uint256"
        }
      ],
      "stateMutability": "view",
      "type": "function"
    },
    {
      "inputs": [
        {
          "internalType": "uint256",
          "name": "_id",
          "type": "uint256"
        }
      ],
      "name": "borrow",
      "outputs": [],
      "stateMutability": "nonpayable",
      "type": "function"
    },
    {
      "inputs": [
        {
          "internalType": "address",
          "name": "_borrower",
          "type": "address"
        },
        {
          "internalType": "uint256",
          "name": "_minPayment",
          "type": "uint256"
        },
        {
          "internalType": "uint256",
          "name": "_paymentPeriod",
          "type": "uint256"
        },
        {
          "internalType": "uint256",
          "name": "_principal",
          "type": "uint256"
        }
      ],
      "name": "configureNew",
      "outputs": [
        {
          "internalType": "uint256",
          "name": "",
          "type": "uint256"
        }
      ],
      "stateMutability": "nonpayable",
      "type": "function"
    },
    {
      "inputs": [],
      "name": "decimals",
      "outputs": [
        {
          "internalType": "uint8",
          "name": "",
          "type": "uint8"
        }
      ],
      "stateMutability": "view",
      "type": "function"
    },
    {
      "inputs": [
        {
          "internalType": "address",
          "name": "spender",
          "type": "address"
        },
        {
          "internalType": "uint256",
          "name": "subtractedValue",
          "type": "uint256"
        }
      ],
      "name": "decreaseAllowance",
      "outputs": [
        {
          "internalType": "bool",
          "name": "",
          "type": "bool"
        }
      ],
      "stateMutability": "nonpayable",
      "type": "function"
    },
    {
      "inputs": [],
      "name": "fullRepaymentPermitted",
      "outputs": [
        {
          "internalType": "bool",
          "name": "",
          "type": "bool"
        }
      ],
      "stateMutability": "view",
      "type": "function"
    },
    {
      "inputs": [
        {
          "internalType": "address",
          "name": "_borrower",
          "type": "address"
        },
        {
          "internalType": "uint256",
          "name": "_index",
          "type": "uint256"
        }
      ],
      "name": "getId",
      "outputs": [
        {
          "internalType": "uint256",
          "name": "",
          "type": "uint256"
        }
      ],
      "stateMutability": "view",
      "type": "function"
    },
    {
      "inputs": [
        {
          "internalType": "address",
          "name": "_who",
          "type": "address"
        }
      ],
      "name": "getNumberOfLoans",
      "outputs": [
        {
          "internalType": "uint256",
          "name": "",
          "type": "uint256"
        }
      ],
      "stateMutability": "view",
      "type": "function"
    },
    {
      "inputs": [
        {
          "internalType": "address",
          "name": "spender",
          "type": "address"
        },
        {
          "internalType": "uint256",
          "name": "addedValue",
          "type": "uint256"
        }
      ],
      "name": "increaseAllowance",
      "outputs": [
        {
          "internalType": "bool",
          "name": "",
          "type": "bool"
        }
      ],
      "stateMutability": "nonpayable",
      "type": "function"
    },
    {
      "inputs": [],
      "name": "interestRate",
      "outputs": [
        {
          "internalType": "uint256",
          "name": "",
          "type": "uint256"
        }
      ],
      "stateMutability": "view",
      "type": "function"
    },
    {
      "inputs": [
        {
          "internalType": "uint256",
          "name": "_id",
          "type": "uint256"
        }
      ],
      "name": "isComplete",
      "outputs": [
        {
          "internalType": "bool",
          "name": "",
          "type": "bool"
        }
      ],
      "stateMutability": "view",
      "type": "function"
    },
    {
      "inputs": [
        {
          "internalType": "uint256",
          "name": "_amount",
          "type": "uint256"
        }
      ],
      "name": "lend",
      "outputs": [],
      "stateMutability": "nonpayable",
      "type": "function"
    },
    {
      "inputs": [
        {
          "internalType": "address",
          "name": "",
          "type": "address"
        }
      ],
      "name": "lenderWhitelist",
      "outputs": [
        {
          "internalType": "bool",
          "name": "",
          "type": "bool"
        }
      ],
      "stateMutability": "view",
      "type": "function"
    },
    {
      "inputs": [],
      "name": "lendingWhitelist",
      "outputs": [
        {
          "internalType": "bool",
          "name": "",
          "type": "bool"
        }
      ],
      "stateMutability": "view",
      "type": "function"
    },
    {
      "inputs": [
        {
          "internalType": "address",
          "name": "",
          "type": "address"
        },
        {
          "internalType": "uint256",
          "name": "",
          "type": "uint256"
        }
      ],
      "name": "loanIDs",
      "outputs": [
        {
          "internalType": "uint256",
          "name": "",
          "type": "uint256"
        }
      ],
      "stateMutability": "view",
      "type": "function"
    },
    {
      "inputs": [
        {
          "internalType": "uint256",
          "name": "",
          "type": "uint256"
        }
      ],
      "name": "loanLookup",
      "outputs": [
        {
          "internalType": "bool",
          "name": "issued",
          "type": "bool"
        },
        {
          "internalType": "address",
          "name": "ERC20Address",
          "type": "address"
        },
        {
          "internalType": "address",
          "name": "borrower",
          "type": "address"
        },
        {
          "internalType": "uint256",
          "name": "paymentPeriod",
          "type": "uint256"
        },
        {
          "internalType": "uint256",
          "name": "paymentDueDate",
          "type": "uint256"
        },
        {
          "internalType": "uint256",
          "name": "minPayment",
          "type": "uint256"
        },
        {
          "internalType": "uint256",
          "name": "principal",
          "type": "uint256"
        },
        {
          "internalType": "uint256",
          "name": "totalPaymentsValue",
          "type": "uint256"
        },
        {
          "internalType": "uint256",
          "name": "paymentComplete",
          "type": "uint256"
        }
      ],
      "stateMutability": "view",
      "type": "function"
    },
    {
      "inputs": [],
      "name": "name",
      "outputs": [
        {
          "internalType": "string",
          "name": "",
          "type": "string"
        }
      ],
      "stateMutability": "view",
      "type": "function"
    },
    {
      "inputs": [],
      "name": "owner",
      "outputs": [
        {
          "internalType": "address",
          "name": "",
          "type": "address"
        }
      ],
      "stateMutability": "view",
      "type": "function"
    },
    {
      "inputs": [
        {
          "internalType": "uint256",
          "name": "_id",
          "type": "uint256"
        },
        {
          "internalType": "uint256",
          "name": "_erc20Ammount",
          "type": "uint256"
        }
      ],
      "name": "payment",
      "outputs": [],
      "stateMutability": "nonpayable",
      "type": "function"
    },
    {
      "inputs": [],
      "name": "renounceOwnership",
      "outputs": [],
      "stateMutability": "nonpayable",
      "type": "function"
    },
    {
      "inputs": [
        {
          "internalType": "uint256",
          "name": "_new",
          "type": "uint256"
        }
      ],
      "name": "setInterestRate",
      "outputs": [],
      "stateMutability": "nonpayable",
      "type": "function"
    },
    {
      "inputs": [],
      "name": "symbol",
      "outputs": [
        {
          "internalType": "string",
          "name": "",
          "type": "string"
        }
      ],
      "stateMutability": "view",
      "type": "function"
    },
    {
      "inputs": [],
      "name": "token",
      "outputs": [
        {
          "internalType": "contract IERC20",
          "name": "",
          "type": "address"
        }
      ],
      "stateMutability": "view",
      "type": "function"
    },
    {
      "inputs": [],
      "name": "totalSupply",
      "outputs": [
        {
          "internalType": "uint256",
          "name": "",
          "type": "uint256"
        }
      ],
      "stateMutability": "view",
      "type": "function"
    },
    {
      "inputs": [
        {
          "internalType": "address",
          "name": "recipient",
          "type": "address"
        },
        {
          "internalType": "uint256",
          "name": "amount",
          "type": "uint256"
        }
      ],
      "name": "transfer",
      "outputs": [
        {
          "internalType": "bool",
          "name": "",
          "type": "bool"
        }
      ],
      "stateMutability": "nonpayable",
      "type": "function"
    },
    {
      "inputs": [
        {
          "internalType": "address",
          "name": "sender",
          "type": "address"
        },
        {
          "internalType": "address",
          "name": "recipient",
          "type": "address"
        },
        {
          "internalType": "uint256",
          "name": "amount",
          "type": "uint256"
        }
      ],
      "name": "transferFrom",
      "outputs": [
        {
          "internalType": "bool",
          "name": "",
          "type": "bool"
        }
      ],
      "stateMutability": "nonpayable",
      "type": "function"
    },
    {
      "inputs": [
        {
          "internalType": "address",
          "name": "newOwner",
          "type": "address"
        }
      ],
      "name": "transferOwnership",
      "outputs": [],
      "stateMutability": "nonpayable",
      "type": "function"
    },
    {
      "inputs": [
        {
          "internalType": "uint256",
          "name": "_amount",
          "type": "uint256"
        }
      ],
      "name": "withdrawl",
      "outputs": [],
      "stateMutability": "nonpayable",
      "type": "function"
    }
  ],
  "bytecode": "0x60806040526103e86007556008805460ff191690553480156200002157600080fd5b5060405162001f6438038062001f648339810160408190526200004491620002bf565b838260405180604001604052806008815260200167526f63692044414960c01b815250816040516020016200009591906001600160f81b03199190911681526244414960e81b600182015260040190565b60408051601f198184030181529190528151620000ba906003906020850190620001fc565b508051620000d0906004906020840190620001fc565b5050600580546001600160a01b0319166001600160a01b03949094169390931790925550620001089050620001023390565b620001aa565b6008805460ff19610100861515021661ffff1990911617600117905560005b81518110156200019f576001600b60008484815181106200015857634e487b7160e01b600052603260045260246000fd5b6020908102919091018101516001600160a01b03168252810191909152604001600020805460ff19169115159190911790558062000196816200041c565b91505062000127565b50505050506200045a565b600680546001600160a01b038381166001600160a01b0319831681179093556040519116919082907f8be0079c531659141344cd1fd0a4f28419497f9722a3daafe3b4186f6b6457e090600090a35050565b8280546200020a90620003df565b90600052602060002090601f0160209004810192826200022e576000855562000279565b82601f106200024957805160ff191683800117855562000279565b8280016001018555821562000279579182015b82811115620002795782518255916020019190600101906200025c565b50620002879291506200028b565b5090565b5b808211156200028757600081556001016200028c565b80516001600160a01b0381168114620002ba57600080fd5b919050565b60008060008060808587031215620002d5578384fd5b620002e085620002a2565b93506020808601518015158114620002f6578485fd5b60408701519094506001600160f81b03198116811462000314578384fd5b60608701519093506001600160401b038082111562000331578384fd5b818801915088601f83011262000345578384fd5b8151818111156200035a576200035a62000444565b8060051b604051601f19603f8301168101818110858211171562000382576200038262000444565b604052828152858101935084860182860187018d1015620003a1578788fd5b8795505b83861015620003ce57620003b981620002a2565b855260019590950194938601938601620003a5565b50989b979a50959850505050505050565b600181811c90821680620003f457607f821691505b602082108114156200041657634e487b7160e01b600052602260045260246000fd5b50919050565b60006000198214156200043d57634e487b7160e01b81526011600452602481fd5b5060010190565b634e487b7160e01b600052604160045260246000fd5b611afa806200046a6000396000f3fe608060405234801561001057600080fd5b50600436106101da5760003560e01c80637c3a00fd11610104578063c5d3e11d116100a2578063dd62ed3e11610071578063dd62ed3e146104ab578063e4480dd8146104e4578063f2fde38b146104f7578063fc0c546a1461050a57600080fd5b8063c5d3e11d1461044f578063c5ebeaec14610462578063cd1c38c114610475578063d6a0fe611461049857600080fd5b806395d89b41116100de57806395d89b411461040e578063a457c2d714610416578063a6aa57ce14610429578063a9059cbb1461043c57600080fd5b80637c3a00fd146103b75780637e23f5dd146103c05780638da5cb5b146103e957600080fd5b8063395093511161017c5780635f84f3021161014b5780635f84f302146102c1578063630e69ad146102d457806370a0823114610386578063715018a6146103af57600080fd5b8063395093511461027b5780633a0be1a61461028e5780634af50116146102a157806352eee654146102b457600080fd5b806323b872dd116101b857806323b872dd146102325780632f63147f14610245578063313ce5671461025a57806337bfab9d1461026957600080fd5b806306fdde03146101df578063095ea7b3146101fd57806318160ddd14610220575b600080fd5b6101e761051d565b6040516101f4919061197d565b60405180910390f35b61021061020b3660046118ab565b6105af565b60405190151581526020016101f4565b6002545b6040519081526020016101f4565b610210610240366004611870565b6105c5565b61025861025336600461195c565b610674565b005b604051601281526020016101f4565b60085461021090610100900460ff1681565b6102106102893660046118ab565b610950565b61021061029c36600461192c565b61098c565b6102246102af3660046118ab565b6109c7565b6008546102109060ff1681565b6102586102cf36600461192c565b6109f8565b6103346102e236600461192c565b6009602052600090815260409020805460018201546002830154600384015460048501546005860154600687015460079097015460ff8716976101009097046001600160a01b03908116979616959089565b604080519915158a526001600160a01b0398891660208b015296909716958801959095526060870193909352608086019190915260a085015260c084015260e0830152610100820152610120016101f4565b61022461039436600461181d565b6001600160a01b031660009081526020819052604090205490565b610258610a79565b61022460075481565b6102246103ce36600461181d565b6001600160a01b03166000908152600a602052604090205490565b6006546001600160a01b03165b6040516001600160a01b0390911681526020016101f4565b6101e7610aaf565b6102106104243660046118ab565b610abe565b61025861043736600461192c565b610b57565b61021061044a3660046118ab565b610c00565b61022461045d3660046118ab565b610c0d565b61025861047036600461192c565b610c59565b61021061048336600461181d565b600b6020526000908152604090205460ff1681565b6102246104a63660046118d4565b610d73565b6102246104b936600461183e565b6001600160a01b03918216600090815260016020908152604080832093909416825291909152205490565b6102586104f236600461192c565b610fa6565b61025861050536600461181d565b610fb0565b6005546103f6906001600160a01b031681565b60606003805461052c90611a73565b80601f016020809104026020016040519081016040528092919081815260200182805461055890611a73565b80156105a55780601f1061057a576101008083540402835291602001916105a5565b820191906000526020600020905b81548152906001019060200180831161058857829003601f168201915b5050505050905090565b60006105bc338484611048565b50600192915050565b60006105d284848461116c565b6001600160a01b03841660009081526001602090815260408083203384529091529020548281101561065c5760405162461bcd60e51b815260206004820152602860248201527f45524332303a207472616e7366657220616d6f756e74206578636565647320616044820152676c6c6f77616e636560c01b60648201526084015b60405180910390fd5b6106698533858403611048565b506001949350505050565b600082815260096020526040902060068101546007909101548391116106e65760405162461bcd60e51b815260206004820152602160248201527f5468697320636f6e747261637420697320616c72656164792070616964206f666044820152603360f91b6064820152608401610653565b600083815260096020908152604091829020825161012081018452815460ff808216151583526001600160a01b03610100928390048116958401959095526001840154909416948201949094526002820154606082015260038201546080820152600482015460a0820152600582015460c0820152600682015460e082015260079091015483820152600854909290041661078c578060e0015183141561078c57600080fd5b8060a00151831015806107b657508060a001518161010001518260e001516107b49190611a5c565b105b61080c5760405162461bcd60e51b815260206004820152602160248201527f596f75206d757374206d616b6520746865206d696e696d756d207061796d656e6044820152601d60fa1b6064820152608401610653565b60208101516040516323b872dd60e01b8152336004820152306024820152604481018590526001600160a01b03909116906323b872dd90606401602060405180830381600087803b15801561086057600080fd5b505af1158015610874573d6000803e3d6000fd5b505050506040513d601f19601f82011682018060405250810190610898919061190c565b5060608101516108a89042611a05565b60008581526009602052604081206003810192909255600790910180548592906108d3908490611a05565b909155506108e290508461098c565b61094a57600780546000868152600960205260409020918201546006909201546127109261090f91611a5c565b6109199190611a3d565b6109239190611a1d565b60008581526009602052604081206006018054909190610944908490611a05565b90915550505b50505050565b3360008181526001602090815260408083206001600160a01b038716845290915281205490916105bc918590610987908690611a05565b611048565b600081815260096020526040812060068101546007909101541015806109c1575060008281526009602052604090205460ff16155b92915050565b600a60205281600052604060002081815481106109e357600080fd5b90600052602060002001600091509150505481565b6006546001600160a01b03163314610a225760405162461bcd60e51b8152600401610653906119d0565b612710811115610a745760405162461bcd60e51b815260206004820152601e60248201527f43616e6e6f74206861766520696e746572657374206f766572203130302500006044820152606401610653565b600755565b6006546001600160a01b03163314610aa35760405162461bcd60e51b8152600401610653906119d0565b610aad600061133a565b565b60606004805461052c90611a73565b3360009081526001602090815260408083206001600160a01b038616845290915281205482811015610b405760405162461bcd60e51b815260206004820152602560248201527f45524332303a2064656372656173656420616c6c6f77616e63652062656c6f77604482015264207a65726f60d81b6064820152608401610653565b610b4d3385858403611048565b5060019392505050565b60085460ff1615610bf357336000908152600b602052604090205460ff16610bf35760405162461bcd60e51b815260206004820152604360248201527f5468697320706f6f6c20726571756972657320796f752062652077686974656c60448201527f69737465642061732061206c656e6465722e20416e6420796f7520617265206e60648201526237ba1760e91b608482015260a401610653565b610bfd813361138c565b50565b60006105bc33848461116c565b604080516bffffffffffffffffffffffff1930606090811b821660208085019190915295901b166034820152604880820193909352815180820390930183526068019052805191012090565b6000818152600960205260409020600101546001600160a01b03163314610cce5760405162461bcd60e51b8152602060048201526024808201527f43616c6c6572206d757374206265206120636f6e6669677572656420626f727260448201526337bbb2b960e11b6064820152608401610653565b60008181526009602052604090819020805460ff1916600117815560058054910154915163a9059cbb60e01b815233600482015260248101929092526001600160a01b03169063a9059cbb90604401602060405180830381600087803b158015610d3757600080fd5b505af1158015610d4b573d6000803e3d6000fd5b505050506040513d601f19601f82011682018060405250810190610d6f919061190c565b5050565b6005546040516370a0823160e01b81523060048201526000916001600160a01b0316906370a082319060240160206040518083038186803b158015610db757600080fd5b505afa158015610dcb573d6000803e3d6000fd5b505050506040513d601f19601f82011682018060405250810190610def9190611944565b821115610e595760405162461bcd60e51b815260206004820152603260248201527f5072696e636970616c2063616e6e6f742062652067726561746572207468616e6044820152712074686520746f6b656e2062616c616e636560701b6064820152608401610653565b6001600160a01b0385166000908152600a6020526040812054610e7d908790610c0d565b6001600160a01b038088166000818152600a6020908152604080832080546001810182559084528284200186905580516101208101825292835260055490941690820152918201526060810186905290915060808101610edd8642611a05565b81526020808201979097526040808201869052606080830196909652600060809283018190528481526009895281902083518154998501516001600160a81b0319909a16901515610100600160a81b031916176101006001600160a01b039a8b168102919091178255918401516001820180546001600160a01b03191691909a1617909855948201516002880155810151600387015560a0810151600487015560c0810151600587015560e0810151600687015592909201516007909401939093559392505050565b610bfd81336114ef565b6006546001600160a01b03163314610fda5760405162461bcd60e51b8152600401610653906119d0565b6001600160a01b03811661103f5760405162461bcd60e51b815260206004820152602660248201527f4f776e61626c653a206e6577206f776e657220697320746865207a65726f206160448201526564647265737360d01b6064820152608401610653565b610bfd8161133a565b6001600160a01b0383166110aa5760405162461bcd60e51b8152602060048201526024808201527f45524332303a20617070726f76652066726f6d20746865207a65726f206164646044820152637265737360e01b6064820152608401610653565b6001600160a01b03821661110b5760405162461bcd60e51b815260206004820152602260248201527f45524332303a20617070726f766520746f20746865207a65726f206164647265604482015261737360f01b6064820152608401610653565b6001600160a01b0383811660008181526001602090815260408083209487168084529482529182902085905590518481527f8c5be1e5ebec7d5bd14f71427d1e84f3dd0314c0f7b2291e5b200ac8c7c3b925910160405180910390a3505050565b6001600160a01b0383166111d05760405162461bcd60e51b815260206004820152602560248201527f45524332303a207472616e736665722066726f6d20746865207a65726f206164604482015264647265737360d81b6064820152608401610653565b6001600160a01b0382166112325760405162461bcd60e51b815260206004820152602360248201527f45524332303a207472616e7366657220746f20746865207a65726f206164647260448201526265737360e81b6064820152608401610653565b6001600160a01b038316600090815260208190526040902054818110156112aa5760405162461bcd60e51b815260206004820152602660248201527f45524332303a207472616e7366657220616d6f756e7420657863656564732062604482015265616c616e636560d01b6064820152608401610653565b6001600160a01b038085166000908152602081905260408082208585039055918516815290812080548492906112e1908490611a05565b92505081905550826001600160a01b0316846001600160a01b03167fddf252ad1be2c89b69c2b068fc378daa952ba7f163c4a11628f55a4df523b3ef8460405161132d91815260200190565b60405180910390a361094a565b600680546001600160a01b038381166001600160a01b0319831681179093556040519116919082907f8be0079c531659141344cd1fd0a4f28419497f9722a3daafe3b4186f6b6457e090600090a35050565b6005546040516370a0823160e01b81523060048201526000916001600160a01b0316906370a082319060240160206040518083038186803b1580156113d057600080fd5b505afa1580156113e4573d6000803e3d6000fd5b505050506040513d601f19601f820116820180604052508101906114089190611944565b9050600061141560025490565b9050801580611422575081155b156114365761143183856115d4565b61145b565b6000826114438387611a3d565b61144d9190611a1d565b905061145984826115d4565b505b6005546040516323b872dd60e01b81526001600160a01b03858116600483015230602483015260448201879052909116906323b872dd906064015b602060405180830381600087803b1580156114b057600080fd5b505af11580156114c4573d6000803e3d6000fd5b505050506040513d601f19601f820116820180604052508101906114e8919061190c565b5050505050565b60006114fa60025490565b6005546040516370a0823160e01b815230600482015291925060009183916001600160a01b0316906370a082319060240160206040518083038186803b15801561154357600080fd5b505afa158015611557573d6000803e3d6000fd5b505050506040513d601f19601f8201168201806040525081019061157b9190611944565b6115859086611a3d565b61158f9190611a1d565b905061159b83856116b3565b60055460405163a9059cbb60e01b81526001600160a01b038581166004830152602482018490529091169063a9059cbb90604401611496565b6001600160a01b03821661162a5760405162461bcd60e51b815260206004820152601f60248201527f45524332303a206d696e7420746f20746865207a65726f2061646472657373006044820152606401610653565b806002600082825461163c9190611a05565b90915550506001600160a01b03821660009081526020819052604081208054839290611669908490611a05565b90915550506040518181526001600160a01b038316906000907fddf252ad1be2c89b69c2b068fc378daa952ba7f163c4a11628f55a4df523b3ef9060200160405180910390a35050565b6001600160a01b0382166117135760405162461bcd60e51b815260206004820152602160248201527f45524332303a206275726e2066726f6d20746865207a65726f206164647265736044820152607360f81b6064820152608401610653565b6001600160a01b038216600090815260208190526040902054818110156117875760405162461bcd60e51b815260206004820152602260248201527f45524332303a206275726e20616d6f756e7420657863656564732062616c616e604482015261636560f01b6064820152608401610653565b6001600160a01b03831660009081526020819052604081208383039055600280548492906117b6908490611a5c565b90915550506040518281526000906001600160a01b038516907fddf252ad1be2c89b69c2b068fc378daa952ba7f163c4a11628f55a4df523b3ef9060200160405180910390a3505050565b80356001600160a01b038116811461181857600080fd5b919050565b60006020828403121561182e578081fd5b61183782611801565b9392505050565b60008060408385031215611850578081fd5b61185983611801565b915061186760208401611801565b90509250929050565b600080600060608486031215611884578081fd5b61188d84611801565b925061189b60208501611801565b9150604084013590509250925092565b600080604083850312156118bd578182fd5b6118c683611801565b946020939093013593505050565b600080600080608085870312156118e9578081fd5b6118f285611801565b966020860135965060408601359560600135945092505050565b60006020828403121561191d578081fd5b81518015158114611837578182fd5b60006020828403121561193d578081fd5b5035919050565b600060208284031215611955578081fd5b5051919050565b6000806040838503121561196e578182fd5b50508035926020909101359150565b6000602080835283518082850152825b818110156119a95785810183015185820160400152820161198d565b818111156119ba5783604083870101525b50601f01601f1916929092016040019392505050565b6020808252818101527f4f776e61626c653a2063616c6c6572206973206e6f7420746865206f776e6572604082015260600190565b60008219821115611a1857611a18611aae565b500190565b600082611a3857634e487b7160e01b81526012600452602481fd5b500490565b6000816000190483118215151615611a5757611a57611aae565b500290565b600082821015611a6e57611a6e611aae565b500390565b600181811c90821680611a8757607f821691505b60208210811415611aa857634e487b7160e01b600052602260045260246000fd5b50919050565b634e487b7160e01b600052601160045260246000fdfea264697066735822122077294bd071de0e955badf4b6d0198ec2e88dbfc8de20d44fff1c651d4939cf1764736f6c63430008040033",
  "linkReferences": {},
  "deployedLinkReferences": {}
}