{
  "_format": "hh-sol-artifact-1",
  "contractName": "ScoreDB",
  "sourceName": "contracts/ScoreDB.sol",
  "abi": [
    {
      "inputs": [],
      "stateMutability": "nonpayable",
      "type": "constructor"
    },
    {
      "anonymous": false,
      "inputs": [
        {
          "indexed": true,
          "internalType": "bytes32",
          "name": "id",
          "type": "bytes32"
        }
      ],
      "name": "ChainlinkCancelled",
      "type": "event"
    },
    {
      "anonymous": false,
      "inputs": [
        {
          "indexed": true,
          "internalType": "bytes32",
          "name": "id",
          "type": "bytes32"
        }
      ],
      "name": "ChainlinkFulfilled",
      "type": "event"
    },
    {
      "anonymous": false,
      "inputs": [
        {
          "indexed": true,
          "internalType": "bytes32",
          "name": "id",
          "type": "bytes32"
        }
      ],
      "name": "ChainlinkRequested",
      "type": "event"
    },
    {
      "anonymous": false,
      "inputs": [
        {
          "indexed": true,
          "internalType": "uint256",
          "name": "tokenId",
          "type": "uint256"
        },
        {
          "indexed": true,
          "internalType": "uint16",
          "name": "score",
          "type": "uint16"
        }
      ],
      "name": "ScoreGenerationError",
      "type": "event"
    },
    {
      "anonymous": false,
      "inputs": [
        {
          "indexed": true,
          "internalType": "uint256",
          "name": "tokenId",
          "type": "uint256"
        },
        {
          "indexed": true,
          "internalType": "uint16",
          "name": "score",
          "type": "uint16"
        }
      ],
      "name": "ScoreNotGenerated",
      "type": "event"
    },
    {
      "anonymous": false,
      "inputs": [
        {
          "indexed": true,
          "internalType": "uint256",
          "name": "tokenId",
          "type": "uint256"
        },
        {
          "indexed": true,
          "internalType": "uint16",
          "name": "score",
          "type": "uint16"
        }
      ],
      "name": "ScoreReceived",
      "type": "event"
    },
    {
      "anonymous": false,
      "inputs": [
        {
          "indexed": true,
          "internalType": "uint256",
          "name": "tokenId",
          "type": "uint256"
        }
      ],
      "name": "ScoreRequested",
      "type": "event"
    },
    {
      "inputs": [
        {
          "internalType": "bytes32",
          "name": "_requestId",
          "type": "bytes32"
        },
        {
          "internalType": "uint16",
          "name": "_score",
          "type": "uint16"
        }
      ],
      "name": "fulfill",
      "outputs": [],
      "stateMutability": "nonpayable",
      "type": "function"
    },
    {
      "inputs": [
        {
          "internalType": "uint256",
          "name": "tokenId",
          "type": "uint256"
        }
      ],
      "name": "getCurrentScore",
      "outputs": [
        {
          "internalType": "uint16",
          "name": "",
          "type": "uint16"
        }
      ],
      "stateMutability": "view",
      "type": "function"
    },
    {
      "inputs": [
        {
          "internalType": "uint256",
          "name": "tokenId",
          "type": "uint256"
        },
        {
          "internalType": "uint256",
          "name": "loanId",
          "type": "uint256"
        },
        {
          "internalType": "bytes32",
          "name": "hash",
          "type": "bytes32"
        },
        {
          "internalType": "bytes",
          "name": "signature",
          "type": "bytes"
        }
      ],
      "name": "requestUpdatedScoreBorrow",
      "outputs": [],
      "stateMutability": "nonpayable",
      "type": "function"
    },
    {
      "inputs": [
        {
          "internalType": "uint256",
          "name": "tokenId",
          "type": "uint256"
        }
      ],
      "name": "requestUpdatedScoreFrontend",
      "outputs": [],
      "stateMutability": "nonpayable",
      "type": "function"
    },
    {
      "inputs": [
        {
          "internalType": "string",
          "name": "newBaseUri",
          "type": "string"
        }
      ],
      "name": "setBaseUri",
      "outputs": [],
      "stateMutability": "nonpayable",
      "type": "function"
    },
    {
      "inputs": [
        {
          "internalType": "address",
          "name": "investorAddress",
          "type": "address"
        }
      ],
      "name": "setInvestorAddress",
      "outputs": [],
      "stateMutability": "nonpayable",
      "type": "function"
    },
    {
      "inputs": [
        {
          "internalType": "address",
          "name": "tokenAddress",
          "type": "address"
        }
      ],
      "name": "setTokenAddress",
      "outputs": [],
      "stateMutability": "nonpayable",
      "type": "function"
    }
  ],
  "bytecode": "0x60806040526001600455600e60009054906101000a900473ffffffffffffffffffffffffffffffffffffffff16600f60006101000a81548173ffffffffffffffffffffffffffffffffffffffff021916908373ffffffffffffffffffffffffffffffffffffffff1602179055506040518060600160405280603e8152602001620024d4603e9139601390805190602001906200009d92919062000239565b50348015620000ab57600080fd5b50620000bc6200014d60201b60201c565b73c57b33452b4f7bb189bb5afae9cc4aba1f7a4fd8601060006101000a81548173ffffffffffffffffffffffffffffffffffffffff021916908373ffffffffffffffffffffffffffffffffffffffff1602179055507f643532373064316333313139343164306230386265616432316665613737343760118190555067016345785d8a0000601281905550620003df565b620001f373c89bd4e1632d3a43cb03aaad5262cbe4038bc57173ffffffffffffffffffffffffffffffffffffffff166338cc48316040518163ffffffff1660e01b815260040160206040518083038186803b158015620001ac57600080fd5b505afa158015620001c1573d6000803e3d6000fd5b505050506040513d601f19601f82011682018060405250810190620001e7919062000300565b620001f560201b60201c565b565b80600260006101000a81548173ffffffffffffffffffffffffffffffffffffffff021916908373ffffffffffffffffffffffffffffffffffffffff16021790555050565b828054620002479062000360565b90600052602060002090601f0160209004810192826200026b5760008555620002b7565b82601f106200028657805160ff1916838001178555620002b7565b82800160010185558215620002b7579182015b82811115620002b657825182559160200191906001019062000299565b5b509050620002c69190620002ca565b5090565b5b80821115620002e5576000816000905550600101620002cb565b5090565b600081519050620002fa81620003c5565b92915050565b6000602082840312156200031357600080fd5b60006200032384828501620002e9565b91505092915050565b6000620003398262000340565b9050919050565b600073ffffffffffffffffffffffffffffffffffffffff82169050919050565b600060028204905060018216806200037957607f821691505b6020821081141562000390576200038f62000396565b5b50919050565b7f4e487b7100000000000000000000000000000000000000000000000000000000600052602260045260246000fd5b620003d0816200032c565b8114620003dc57600080fd5b50565b6120e580620003ef6000396000f3fe608060405234801561001057600080fd5b506004361061007d5760003560e01c806366029a851161005b57806366029a85146100ea5780639afb0f80146101065780639c3560f914610122578063a0bcfc7f1461013e5761007d565b806326a4e8d21461008257806342602f1e1461009e5780634d0a7832146100ba575b600080fd5b61009c60048036038101906100979190611561565b61015a565b005b6100b860048036038101906100b39190611561565b61019e565b005b6100d460048036038101906100cf9190611630565b6101e2565b6040516100e191906119d6565b60405180910390f35b61010460048036038101906100ff9190611659565b61020d565b005b610120600480360381019061011b91906115b3565b6102b0565b005b61013c60048036038101906101379190611630565b610659565b005b610158600480360381019061015391906115ef565b610697565b005b80600d60006101000a81548173ffffffffffffffffffffffffffffffffffffffff021916908373ffffffffffffffffffffffffffffffffffffffff16021790555050565b80600e60006101000a81548173ffffffffffffffffffffffffffffffffffffffff021916908373ffffffffffffffffffffffffffffffffffffffff16021790555050565b60006006600083815260200190815260200160002060009054906101000a900461ffff169050919050565b6000610218856106b1565b905060016009600083815260200190815260200160002060006101000a81548160ff021916908360ff16021790555060405180606001604052808581526020018481526020018381525060076000838152602001908152602001600020600082015181600001556020820151816001015560408201518160020190805190602001906102a5929190611278565b509050505050505050565b816005600082815260200190815260200160002060009054906101000a900473ffffffffffffffffffffffffffffffffffffffff1673ffffffffffffffffffffffffffffffffffffffff163373ffffffffffffffffffffffffffffffffffffffff1614610352576040517f08c379a0000000000000000000000000000000000000000000000000000000008152600401610349906119b6565b60405180910390fd5b6005600082815260200190815260200160002060006101000a81549073ffffffffffffffffffffffffffffffffffffffff0219169055807f7cc135e0cebb02c3480ae5d74d377283180a2601f8f644edf7987b009316c63a60405160405180910390a260006008600085815260200190815260200160002054905060008361ffff161415610411578261ffff16817f484a97d6a97852280233c7ff04b3fee9a9dbc5f2143f6a842862034791a9a31760405160405180910390a3610453565b6103e88361ffff161415610452578261ffff16817ff63cd4e69d890cd67e458d7c825e5b5a8571d2a518568497f4757eedc3fe91a060405160405180910390a35b5b826006600083815260200190815260200160002060006101000a81548161ffff021916908361ffff1602179055508261ffff16817f9201a8f164028d295c44d280156f474b2265c24129e42cd686c9c7a2483fe29060405160405180910390a360016009600086815260200190815260200160002060009054906101000a900460ff1660ff16141561065357600060076000868152602001908152602001600020604051806060016040529081600082015481526020016001820154815260200160028201805461052390611e7b565b80601f016020809104026020016040519081016040528092919081815260200182805461054f90611e7b565b801561059c5780601f106105715761010080835404028352916020019161059c565b820191906000526020600020905b81548152906001019060200180831161057f57829003601f168201915b5050505050815250509050600081600001511461065157600f60009054906101000a900473ffffffffffffffffffffffffffffffffffffffff1673ffffffffffffffffffffffffffffffffffffffff166390ddac338260000151836020015184604001516040518463ffffffff1660e01b815260040161061e939291906119f1565b600060405180830381600087803b15801561063857600080fd5b505af115801561064c573d6000803e3d6000fd5b505050505b505b50505050565b6000610664826106b1565b905060006009600083815260200190815260200160002060006101000a81548160ff021916908360ff1602179055505050565b80601390805190602001906106ad9291906112fe565b5050565b6000817ff1bf3ca485275a5a46ba6cd4c1d4fd36e385575c86736066ec408dbec9bf0a8360405160405180910390a2600061077e601380546106f290611e7b565b80601f016020809104026020016040519081016040528092919081815260200182805461071e90611e7b565b801561076b5780601f106107405761010080835404028352916020019161076b565b820191906000526020600020905b81548152906001019060200180831161074e57829003601f168201915b5050505050610779856108b7565b610a64565b9050600061079660115430639afb0f8060e01b610a90565b90506107e26040518060400160405280600381526020017f67657400000000000000000000000000000000000000000000000000000000008152508383610ac19092919063ffffffff16565b6108616040518060400160405280600481526020017f70617468000000000000000000000000000000000000000000000000000000008152506040518060400160405280600581526020017f53434f524500000000000000000000000000000000000000000000000000000081525083610ac19092919063ffffffff16565b6000610892601060009054906101000a900473ffffffffffffffffffffffffffffffffffffffff1683601254610af4565b9050846008600083815260200190815260200160002081905550809350505050919050565b606060008214156108ff576040518060400160405280600181526020017f30000000000000000000000000000000000000000000000000000000000000008152509050610a5f565b600082905060005b6000821461093157808061091a90611ead565b915050600a8261092a9190611b59565b9150610907565b60008167ffffffffffffffff811115610973577f4e487b7100000000000000000000000000000000000000000000000000000000600052604160045260246000fd5b6040519080825280601f01601f1916602001820160405280156109a55781602001600182028036833780820191505090505b5090505b60008514610a58576001826109be9190611d55565b9150600a856109cd9190611f24565b60306109d99190611b03565b60f81b818381518110610a15577f4e487b7100000000000000000000000000000000000000000000000000000000600052603260045260246000fd5b60200101907effffffffffffffffffffffffffffffffffffffffffffffffffffffffffffff1916908160001a905350600a85610a519190611b59565b94506109a9565b8093505050505b919050565b60608282604051602001610a799291906118af565b604051602081830303815290604052905092915050565b610a98611384565b610aa0611384565b610ab785858584610b14909392919063ffffffff16565b9150509392505050565b610ad8828460800151610bc490919063ffffffff16565b610aef818460800151610bc490919063ffffffff16565b505050565b6000610b0b8484846001634042994660e01b610be9565b90509392505050565b610b1c611384565b610b2c8560800151610100610e51565b508385600001818152505082856020019073ffffffffffffffffffffffffffffffffffffffff16908173ffffffffffffffffffffffffffffffffffffffff16815250508185604001907bffffffffffffffffffffffffffffffffffffffffffffffffffffffff191690817bffffffffffffffffffffffffffffffffffffffffffffffffffffffff191681525050849050949350505050565b610bd18260038351610ebb565b610be4818361100090919063ffffffff16565b505050565b600030600454604051602001610c00929190611883565b604051602081830303815290604052805190602001209050600454856060018181525050856005600083815260200190815260200160002060006101000a81548173ffffffffffffffffffffffffffffffffffffffff021916908373ffffffffffffffffffffffffffffffffffffffff160217905550807fb5e6e01e79f91267dc17b4e6314d5d4d03593d2ceee0fbb452b750bd70ea5af960405160405180910390a2600082600080886000015189602001518a604001518b606001518a8d6080015160000151604051602401610cde9897969594939291906118d3565b604051602081830303815290604052907bffffffffffffffffffffffffffffffffffffffffffffffffffffffff19166020820180517bffffffffffffffffffffffffffffffffffffffffffffffffffffffff83818316178352505050509050600260009054906101000a900473ffffffffffffffffffffffffffffffffffffffff1673ffffffffffffffffffffffffffffffffffffffff16634000aea08887846040518463ffffffff1660e01b8152600401610d9c93929190611958565b602060405180830381600087803b158015610db657600080fd5b505af1158015610dca573d6000803e3d6000fd5b505050506040513d601f19601f82011682018060405250810190610dee919061158a565b610e2d576040517f08c379a0000000000000000000000000000000000000000000000000000000008152600401610e2490611996565b60405180910390fd5b600160046000828254610e409190611b03565b925050819055505095945050505050565b610e596113f1565b6000602083610e689190611f24565b14610e9457602082610e7a9190611f24565b6020610e869190611d55565b82610e919190611b03565b91505b81836020018181525050604051808452600081528281016020016040525082905092915050565b60178111610ee857610ee28160058460ff16901b60ff16178461102290919063ffffffff16565b50610ffb565b60ff8111610f2a57610f0d601860058460ff16901b178461102290919063ffffffff16565b50610f24816001856110429092919063ffffffff16565b50610ffa565b61ffff8111610f6d57610f50601960058460ff16901b178461102290919063ffffffff16565b50610f67816002856110429092919063ffffffff16565b50610ff9565b63ffffffff8111610fb257610f95601a60058460ff16901b178461102290919063ffffffff16565b50610fac816004856110429092919063ffffffff16565b50610ff8565b67ffffffffffffffff8111610ff757610fde601b60058460ff16901b178461102290919063ffffffff16565b50610ff5816008856110429092919063ffffffff16565b505b5b5b5b5b505050565b6110086113f1565b61101a83846000015151848551611064565b905092915050565b61102a6113f1565b61103a8384600001515184611153565b905092915050565b61104a6113f1565b61105b8485600001515185856111aa565b90509392505050565b61106c6113f1565b825182111561107a57600080fd5b8460200151828561108b9190611b03565b11156110c0576110bf8560026110b0886020015188876110ab9190611b03565b611238565b6110ba9190611cfb565b611254565b5b6000808651805187602083010193508088870111156110df5787860182525b60208701925050505b6020841061112657805182526020826111019190611b03565b91506020816111109190611b03565b905060208461111f9190611d55565b93506110e8565b60006001856020036101000a03905080198251168184511681811785525050508692505050949350505050565b61115b6113f1565b8360200151831061118157611180846002866020015161117b9190611cfb565b611254565b5b835180516020858301018481538186141561119d576001820183525b5050508390509392505050565b6111b26113f1565b846020015184836111c39190611b03565b11156111eb576111ea85600286856111db9190611b03565b6111e59190611cfb565b611254565b5b60006001836101006111fd9190611bdd565b6112079190611d55565b9050855183868201018583198251161781528151858801111561122a5784870182525b505085915050949350505050565b60008183111561124a5782905061124e565b8190505b92915050565b6000826000015190506112678383610e51565b506112728382611000565b50505050565b82805461128490611e7b565b90600052602060002090601f0160209004810192826112a657600085556112ed565b82601f106112bf57805160ff19168380011785556112ed565b828001600101855582156112ed579182015b828111156112ec5782518255916020019190600101906112d1565b5b5090506112fa919061140b565b5090565b82805461130a90611e7b565b90600052602060002090601f01602090048101928261132c5760008555611373565b82601f1061134557805160ff1916838001178555611373565b82800160010185558215611373579182015b82811115611372578251825591602001919060010190611357565b5b509050611380919061140b565b5090565b6040518060a0016040528060008019168152602001600073ffffffffffffffffffffffffffffffffffffffff16815260200160007bffffffffffffffffffffffffffffffffffffffffffffffffffffffff19168152602001600081526020016113eb6113f1565b81525090565b604051806040016040528060608152602001600081525090565b5b8082111561142457600081600090555060010161140c565b5090565b600061143b61143684611a60565b611a2f565b90508281526020810184848401111561145357600080fd5b61145e848285611e39565b509392505050565b600061147961147484611a90565b611a2f565b90508281526020810184848401111561149157600080fd5b61149c848285611e39565b509392505050565b6000813590506114b38161203c565b92915050565b6000815190506114c881612053565b92915050565b6000813590506114dd8161206a565b92915050565b600082601f8301126114f457600080fd5b8135611504848260208601611428565b91505092915050565b600082601f83011261151e57600080fd5b813561152e848260208601611466565b91505092915050565b60008135905061154681612081565b92915050565b60008135905061155b81612098565b92915050565b60006020828403121561157357600080fd5b6000611581848285016114a4565b91505092915050565b60006020828403121561159c57600080fd5b60006115aa848285016114b9565b91505092915050565b600080604083850312156115c657600080fd5b60006115d4858286016114ce565b92505060206115e585828601611537565b9150509250929050565b60006020828403121561160157600080fd5b600082013567ffffffffffffffff81111561161b57600080fd5b6116278482850161150d565b91505092915050565b60006020828403121561164257600080fd5b60006116508482850161154c565b91505092915050565b6000806000806080858703121561166f57600080fd5b600061167d8782880161154c565b945050602061168e8782880161154c565b935050604061169f878288016114ce565b925050606085013567ffffffffffffffff8111156116bc57600080fd5b6116c8878288016114e3565b91505092959194509250565b6116dd81611d89565b82525050565b6116ec81611da7565b82525050565b6116fb81611db1565b82525050565b600061170c82611ac0565b6117168185611ad6565b9350611726818560208601611e48565b61172f81612011565b840191505092915050565b61174b61174682611e15565b611ef6565b82525050565b600061175c82611acb565b6117668185611af8565b9350611776818560208601611e48565b80840191505092915050565b600061178f602383611ae7565b91507f756e61626c6520746f207472616e73666572416e6443616c6c20746f206f726160008301527f636c6500000000000000000000000000000000000000000000000000000000006020830152604082019050919050565b60006117f5602883611ae7565b91507f536f75726365206d75737420626520746865206f7261636c65206f662074686560008301527f20726571756573740000000000000000000000000000000000000000000000006020830152604082019050919050565b61185781611ddd565b82525050565b61186681611e0b565b82525050565b61187d61187882611e0b565b611f1a565b82525050565b600061188f828561173a565b60148201915061189f828461186c565b6020820191508190509392505050565b60006118bb8285611751565b91506118c78284611751565b91508190509392505050565b6000610100820190506118e9600083018b6116d4565b6118f6602083018a61185d565b61190360408301896116e3565b61191060608301886116d4565b61191d60808301876116f2565b61192a60a083018661185d565b61193760c083018561185d565b81810360e08301526119498184611701565b90509998505050505050505050565b600060608201905061196d60008301866116d4565b61197a602083018561185d565b818103604083015261198c8184611701565b9050949350505050565b600060208201905081810360008301526119af81611782565b9050919050565b600060208201905081810360008301526119cf816117e8565b9050919050565b60006020820190506119eb600083018461184e565b92915050565b6000606082019050611a06600083018661185d565b611a1360208301856116e3565b8181036040830152611a258184611701565b9050949350505050565b6000604051905081810181811067ffffffffffffffff82111715611a5657611a55611fe2565b5b8060405250919050565b600067ffffffffffffffff821115611a7b57611a7a611fe2565b5b601f19601f8301169050602081019050919050565b600067ffffffffffffffff821115611aab57611aaa611fe2565b5b601f19601f8301169050602081019050919050565b600081519050919050565b600081519050919050565b600082825260208201905092915050565b600082825260208201905092915050565b600081905092915050565b6000611b0e82611e0b565b9150611b1983611e0b565b9250827fffffffffffffffffffffffffffffffffffffffffffffffffffffffffffffffff03821115611b4e57611b4d611f55565b5b828201905092915050565b6000611b6482611e0b565b9150611b6f83611e0b565b925082611b7f57611b7e611f84565b5b828204905092915050565b6000808291508390505b6001851115611bd457808604811115611bb057611baf611f55565b5b6001851615611bbf5780820291505b8081029050611bcd8561202f565b9450611b94565b94509492505050565b6000611be882611e0b565b9150611bf383611e0b565b9250611c207fffffffffffffffffffffffffffffffffffffffffffffffffffffffffffffffff8484611c28565b905092915050565b600082611c385760019050611cf4565b81611c465760009050611cf4565b8160018114611c5c5760028114611c6657611c95565b6001915050611cf4565b60ff841115611c7857611c77611f55565b5b8360020a915084821115611c8f57611c8e611f55565b5b50611cf4565b5060208310610133831016604e8410600b8410161715611cca5782820a905083811115611cc557611cc4611f55565b5b611cf4565b611cd78484846001611b8a565b92509050818404811115611cee57611ced611f55565b5b81810290505b9392505050565b6000611d0682611e0b565b9150611d1183611e0b565b9250817fffffffffffffffffffffffffffffffffffffffffffffffffffffffffffffffff0483118215151615611d4a57611d49611f55565b5b828202905092915050565b6000611d6082611e0b565b9150611d6b83611e0b565b925082821015611d7e57611d7d611f55565b5b828203905092915050565b6000611d9482611deb565b9050919050565b60008115159050919050565b6000819050919050565b60007fffffffff0000000000000000000000000000000000000000000000000000000082169050919050565b600061ffff82169050919050565b600073ffffffffffffffffffffffffffffffffffffffff82169050919050565b6000819050919050565b6000611e2082611e27565b9050919050565b6000611e3282611deb565b9050919050565b82818337600083830152505050565b60005b83811015611e66578082015181840152602081019050611e4b565b83811115611e75576000848401525b50505050565b60006002820490506001821680611e9357607f821691505b60208210811415611ea757611ea6611fb3565b5b50919050565b6000611eb882611e0b565b91507fffffffffffffffffffffffffffffffffffffffffffffffffffffffffffffffff821415611eeb57611eea611f55565b5b600182019050919050565b6000611f0182611f08565b9050919050565b6000611f1382612022565b9050919050565b6000819050919050565b6000611f2f82611e0b565b9150611f3a83611e0b565b925082611f4a57611f49611f84565b5b828206905092915050565b7f4e487b7100000000000000000000000000000000000000000000000000000000600052601160045260246000fd5b7f4e487b7100000000000000000000000000000000000000000000000000000000600052601260045260246000fd5b7f4e487b7100000000000000000000000000000000000000000000000000000000600052602260045260246000fd5b7f4e487b7100000000000000000000000000000000000000000000000000000000600052604160045260246000fd5b6000601f19601f8301169050919050565b60008160601b9050919050565b60008160011c9050919050565b61204581611d89565b811461205057600080fd5b50565b61205c81611d9b565b811461206757600080fd5b50565b61207381611da7565b811461207e57600080fd5b50565b61208a81611ddd565b811461209557600080fd5b50565b6120a181611e0b565b81146120ac57600080fd5b5056fea2646970667358221220b35c18421a4b8f667b2059721cb0690381aa8c8150c1be8df54ec8a0aecead9164736f6c6343000800003368747470733a2f2f766169337462337166642e657865637574652d6170692e75732d656173742d312e616d617a6f6e6177732e636f6d2f73636f7265732f",
  "linkReferences": {},
  "deployedLinkReferences": {}
}